:1000000000800010A9240000D9240000DB24000097
:10001000DD240000DF240000E124000000000000D7
:10002000000000000000000000000000E3240000C9
:10003000E524000000000000E7240000E92400009F
:10004000EB240000EB240000EB240000EB24000074
:10005000EB240000EB240000EB240000EB24000064
:10006000EB240000EB240000EB240000EB24000054
:10007000EB240000EB240000EB240000EB24000044
:10008000EB240000EB240000EB240000EB24000034
:10009000EB240000EB240000EB240000EB24000024
:1000A000EB240000EB240000EB240000EB24000014
:1000B000EB240000EB240000EB240000EB24000004
:1000C000EB240000EB240000EB24000010B5054CED
:1000D000237833B9044B13B10448AFF300800123F4
:1000E000237010BDAC0200100000000024CD010000
:1000F000084B10B51BB108480849AFF30080084809
:10010000036803B910BD074B002BFBD0BDE81040BE
:10011000184700BF0000000024CD0100B00200100D
:10012000AC02001000000000704700BF10B504468C
:10013000064B483003F1180103F14C022360A1641F
:10014000E26402F037F9204610BD00BF50A801005C
:10015000A0F14800FFF7EABFA0F14C00FFF7E6BFAF
:1001600010B5044602F0D3F9204610BD30B5ADF20B
:100170005C6D002310A8029303930493059300F091
:1001800017FAD3A800F014FA08A800F08DFA00F0CE
:100190009DF8134802F082F8A8B9029D039C04AAB6
:1001A00001AB08A806A90695079400F08FFA019BF9
:1001B00002467BB110A8059900F018FA084802F031
:1001C0006DF80028E9D0074902AA03AB064802F0FF
:1001D00003F9E2E7D3A8059900F008FAD9E700BFD0
:1001E000C802001028A501001003001010B5044635
:1001F000074B483003F1180103F14C022360A1645E
:10020000E26402F0D7F8204602F081F9204610BDE2
:1002100050A80100A0F14800E8E700BFA0F14C00A1
:10022000E4E700BF70B50C4E0C4C0D4D304602F0AB
:1002300083F9224630460B4902F074F928460A49F0
:100240000A4A002302F046F828462246BDE87040DC
:10025000074902F067B900BF28030010C80000106A
:10026000C80200104926000002C0092003C009206E
:100270002D010000024A136801331360704700BF6C
:100280005C03001010B50446044B036002F0C8F88C
:10029000204602F0F5F8204610BD00BF00A901007D
:1002A00010B50446054B036002F0BAF8204602F090
:1002B000E7F8204602F02BF9204610BD00A9010006
:1002C000014B1868704700BF5C03001010B5064C66
:1002D000064904F1140001F0DDFD2046BDE81040A0
:1002E0004FF47A7102F0A8B82C03001075020000D8
:1002F00010B5094C204602F0B1F82046074B00210A
:1003000040F8143B01F0C0FD2046BDE81040044910
:10031000044A02F007B900BF2C03001000A9010035
:1003200085020000C80000102DE9F04104460025B8
:1003300082B0414900F0FEFF04F10800A560E560CD
:1003400025616561A561E5613C4900F03BFC4FF426
:10035000966804F12000012725626562A562E562C6
:1003600025636563364900F02DFC04F5B876354AFF
:100370004FF0FF33CDF80080019704F13800324987
:1003800000F0EEFA3046314900F0D4FF04F5BC70BD
:10039000C4F87851C4F87C51C4F88051C4F8845131
:1003A000C4F88851C4F88C51294900F00BFC04F5BD
:1003B000C870C4F89051C4F89451C4F89851C4F866
:1003C0009C51C4F8A051C4F8A451224900F0FAFB92
:1003D000CDF80080019704F5D4701F491F4A4FF0F3
:1003E000FF3300F0BDFA6269E168E36A1160616A97
:1003F000D4F884211960D4F87C11D4F89C311160B0
:10040000D4F89421DFF85C801A6030464146144FDE
:1004100000F080FF2046414600F07CFF3046394620
:1004200000F02AFF2046394600F026FF204684F8D7
:10043000E05202B0BDE8F08145C0092044C0092067
:1004400043C0092041C0092042C0092040C0092002
:100450000BC009200AC0092005C0092004C00920DA
:10046000CDCC4C3F0AD7A33C70B5044600F5D47000
:100470000E4600F017FB0546304611F069F912A34D
:10048000D3E9002311F0CAF911F062FC281A002800
:1004900016D00ADDD4F88421D4F87C11D4F8A03128
:1004A0001160D4F894211A6070BDD4F88821D4F872
:1004B0007C11D4F89C311160D4F894211A6070BD7D
:1004C000D4F88421F3E700BF21841042082145407D
:1004D00038B590F8E032044600F138054BB12846B3
:1004E00000F0E0FAB0F5F07F1FD094F8E0327BB96D
:1004F00038BD284600F0D6FA0028F0D16369E168DB
:10050000226B1960616A0123116084F8E03238BD02
:10051000284600F0C7FA78B96269E168E36A1160B9
:10052000626A1A6084F8E002E2E7A269E168E36ABD
:100530001160626A1A6038BD38BD00BF10B5054C45
:10054000204601F0F9FF2046BDE810400249034A69
:1005500001F0E8BF6003001049260000C800001049
:1005600010B480E80E005DF8044B704783681944AE
:100570008160704703688B4201DD6E2070474368DD
:100580009942FADC8068401A704700BF10B5054CEC
:10059000204601F0D1FF2046BDE810400249034A41
:1005A00001F0C0BF6403001049260000C80000101D
:1005B00010B504460D210B462C22FFF7D1FF2C214C
:1005C0000B4604F10C004B22FFF7CAFF4B210B46F0
:1005D0006E2204F11800FFF7C3FF0023636204F1E9
:1005E0002800FFF7A1FE204610BD00BF2DE9F84FFF
:1005F00091468846054600F10C07FFF7BBFF4146D0
:1006000083463846FFF7B6FF05F118068246414695
:100610003046FFF7AFFF8BEAEB728AEAEA73A2EB90
:10062000EB72A3EBEA7380EAE0749A42A4EBE07405
:100630001EDAA242B4BF5C460446696A05F1280886
:1006400021444046FFF710FF21462846FFF78EFF62
:1006500021463846FFF78AFF30462146FFF786FFDE
:10066000686AB9F12B0F04446C6206DDBDE8F88FAF
:10067000A342B4BF54460446DFE74046BDE8F84F06
:10068000FFF726BF10B5054C204601F055FF204668
:10069000BDE810400249034A01F044BF680300105E
:1006A00049260000C800001000220023002110B5D8
:1006B000C0E90223C0E90423016041600446FFF75A
:1006C000FFFD0123A0612377204610BD2DE9F04FE7
:1006D000044687B0924698460D46FFF7F1FDA369A0
:1006E000227FC31AA061002A40F0938094E8040896
:1006F0001846009211F01CF806460F46009AD5F8ED
:100700000090C2EB090011F023F832463B4611F08D
:10071000AFF911F01DFB11F01BF8CDE9000168687D
:10072000CBEB000011F014F832463B4611F0A0F973
:1007300011F00EFB11F00CF80022CDE90201DDE909
:100740000001002311F0FAFA064600286AD0C9F128
:10075000620010F0FDFFD4E9022306460F46DDE9F2
:10076000000110F0A7FE00223E4B11F057F8DDE922
:10077000002310F0A1FE0B4602463946304611F028
:1007800077F911F0E5FA83460123C8F8003058469E
:1007900010F0DEFF064668680F4610F0D9FFDDE96D
:1007A0000223804689463046394611F037F8024622
:1007B0000B464046494610F07FFED4E904238046AC
:1007C0008946DDE9020110F075FE0022254B11F08B
:1007D00025F802460B463046394611F01FF802460E
:1007E0000B464046494610F067FE11F0B1FADDE9CC
:1007F0000067CAF804006A682B68DDE90201C4E9F1
:1008000004015846C4E902676260236007B0BDE88E
:10081000F08F002695E80300267702468B4684E891
:10082000030065E7C9F1190010F092FFD4E9022333
:10083000CDE90401DDE9000110F03CFE0022094B86
:1008400010F0ECFFDDE9002310F036FE02460B4607
:10085000DDE9040111F00CF911F07AFAC8F8006032
:10086000834694E70000E03F10B5054C204601F0B8
:1008700063FE2046BDE810400249034A01F052BE23
:100880006C03001049260000C8000010D0F8343175
:100890000133C0F83431704738B50446043001F0F4
:1008A00057FB054604F1640001F052FB237840EA4F
:1008B0004500C4F82C014BB9D4F82831032B2AD0B9
:1008C000FBB9032829D0C4F8280138BD012BFAD17F
:1008D000D4F8283180EA0302032AF4D09842F2D0F7
:1008E000C0F3400203F0010393420CBF4FF0FF330B
:1008F0000123D4F83021C4F82801D31AC4F83031C8
:1009000038BD022B0FD10128DDD1D4F83031013BA5
:10091000C4F83031D7E70028D5D1D4F830310133CD
:10092000C4F83031CFE7012BCDD10228EDD0C4F887
:10093000280138BD0B4682B0024618686B464968EC
:1009400003C3CB0706D548101158009B1044CB5861
:1009500002B01847009B02EB610002B0184700BFCD
:100960002DE9F04704461546984600F1040A8AB07E
:1009700004F164095046129E9DF84C7001F0BEFAD5
:100980002946484601F0BAFA0025414604F1C40060
:1009900001F0B4FAC4F824615046C4F8305127700D
:1009A000C4F8345101F0D4FA8246484601F0D0FA36
:1009B0006A46DFF8EC900195CDF80090364E40EA9B
:1009C0004A0303CA04F1200AA16301210A46C4F8BC
:1009D0002C31C4F82831606324635046E5626664B4
:1009E00000F09AFBCDF80890039502AB03CBE464CA
:1009F000206561652666A56401225046022100F04B
:100A00008BFB012F1CD0B8F1FF3F15D0234B0022E8
:100A10000893099208AB03CBC4F8F8100121C4F87D
:100A2000EC20C4F8F400C4F8F040C4F804610A46AD
:100A300004F1E00000F070FB20460AB0BDE8F0874A
:100A4000CDF81090059504F1800A04AB03CB3A462B
:100A5000C4F89400C4F8981050463946C4F8904041
:100A6000C4F8A460C4F88C5000F056FBCDF8189080
:100A7000079506AB03CBC4F8AC40C4F8B000C4F88B
:100A8000B410C4F8C060C4F8A8503A4650460221D9
:100A900000F042FBB7E700BF350900008D080000F9
:100AA00099080000D0F83001704700BF074A084895
:100AB00008B50021121A12F00FFEAFF3008012F0F9
:100AC00041FC01F083FB11F0BBFF00BF801B001055
:100AD000AC020010022801DC0120704701F03EBB8F
:100AE000EFF3058303B100BE12F056BDEFF30583AB
:100AF00003B100BE12F058BD08B5012011F0A0FFEF
:100B000008B5FFF7F9FF00BF00B599B072B61749F5
:100B1000684600F057F806A8154900F053F80CA8ED
:100B2000144900F04FF812A8134900F04BF8039A4B
:100B300001990A9B11600799109A19600D99159BEC
:100B40001160139A96201A6000F060F9049A0199D6
:100B5000099B116007990F9A19600D99169B1160F6
:100B6000139A96201A6000F051F9E0E732C009208C
:100B700034C0092035C0092037C009200FB400B5A2
:100B8000064A83B004AB53F8041B10681A46C068C9
:100B9000019312F073FF012011F052FFD4010010F5
:100BA00038B50D46044600F0B1F9013509D02046AC
:100BB000002100F0CDF92046BDE83840032100F0C7
:100BC000C3B938BD38B50D46044600F09FF901356C
:100BD0000CD02369626820461A60012100F0B8F940
:100BE0002046BDE83840022100F0AEB938BD00BF54
:100BF00070B50D461646044600F088F9013511D04F
:100C000066B9236962681A602046012100F0A0F9E4
:100C10002046BDE87040022100F096B9E3686268A2
:100C20001A60F1E770BD00BF00F066B8431C10B554
:100C3000044618D00B68581C04D10FE051F80C3F43
:100C40005A1C0BD09C42F9D12046896800F0CAFAA0
:100C50002046BDE81040022100F0E0BA0248BDE89D
:100C60001040FFF78BBF10BD30A5010088420AD0AD
:100C7000421C09D0013106D008B50448FFF77EFFB9
:100C80004FF0FF3008BD70470846704744A501008B
:100C90000B685A1C04D107E051F80C3F5A1C03D0D2
:100CA0008342F9D14868704718467047421C0ED0FD
:100CB00008B50B685A1C04D10AE051F80C3F5A1CC5
:100CC00006D09842F9D14868411C01D008BD704750
:100CD0000248FFF753FF4FF0FF30F7E758A5010038
:100CE00030B585B018246D4620462946ABBE044673
:100CF000204605B030BD00BF024B186800F001006F
:100D0000704700BFF0ED00E010B5044600F08CFF26
:100D1000014B1C6010BD00BF7403001070B500F0E3
:100D2000ABFF0E4D0E4E2B6873B11C6800F084FFB4
:100D3000201A00280CDC296832688B682B60002A96
:100D4000F2D048689047EEE7BDE8704000F08CBFF5
:100D50002B68BDE87040186800F07CBF700300107D
:100D60007403001070B5054672B60E4E016034680B
:100D7000426084B12368CB1A002B05DA0BE01A68B5
:100D80008A1A002A03DB1C46A368002BF7D1A56052
:100D9000AB6062B670BD0846356000F05BFF23466D
:100DA000F6E700BF7003001008B572B6104B1A6862
:100DB000824211D04AB19368834208D02BB19A681D
:100DC000824205D01346002BF9D162B608BD134606
:100DD00082689A6062B608BD92681A6022B1106893
:100DE00000F038FF62B608BD00F03EFFEDE700BF3F
:100DF0007003001038B5054600F01EFF044600F0F1
:100E00001BFF001BA842FAD338BD00BF4FF47A7312
:100E100003FB00F0FFF7EEBF0C4B30B49D689A68FF
:100E20002B46B2F1805F0CD2094AC43553F8044B0B
:100E3000AB4242F8044FF9D14FF080521346034CB5
:100E4000A260103043F8201030BC704700ED00E085
:100E5000FCFFFF0F2B4A2023F0B4C2F8A031D2F8D8
:100E6000A031980645D4274B002519460124AA2015
:100E7000552202270B26C3F80471C3F8A851C3F802
:100E8000AC51C3F80C41C3F88460C3F88C00C3F8BC
:100E90008C20C3F88040C3F88C00C3F88C20D1F8B4
:100EA0008830184A5B01FAD511460324AA2055233D
:100EB000C2F88040C2F88C00C2F88C30D1F888307B
:100EC000104A13F0407FF9D00F4900230520C2F8E3
:100ED0000801C2F8C410C2F8C8311368F0BC23F48A
:100EE000704323F03A0343F4405343F03A03136052
:100EF0007047D2F8A0315906B5D4D2F8A0315906BE
:100F0000F7D5B0E700C00F40DE8728044A1C016017
:100F100018D038B50C4605460846002100F062F9A5
:100F200024F01F0104F01F020123934001F1180473
:100F300001F11C0001F11402A9606B60EC602861F2
:100F40006A6138BD704700BF006800F067B900BF34
:100F500041B1012905D18268436811680B431360D0
:100F60007047704782684168136823EA0103136081
:100F7000704700BF2DE9F04F434B83B0D3F8048096
:100F80009F685E6A9D6AB8F1000F22D09A46DFF82A
:100F900000913E4A4FF0010B06E00BFA04F3B8EB68
:100FA0000308CAF80C3014D0B8FA88F4C4F11F044E
:100FB000E4B259F824000028EFD01368012101920F
:100FC00098470BFA04F3B8EB0308019ACAF80C30FF
:100FD000EAD1D7B1DFF8B890DFF8B0A0DFF8A88089
:100FE00005E00123A340FF1AC8F80C300DD0B7FA72
:100FF00087F4C4F11F04E4B259F824000028F0D0AB
:10100000DAF8003002219847EBE7E6B1DFF880809C
:10101000DFF878901C4F04E00123A340F61AFB622E
:1010200011D0B6FA86F4C4F11F04E4B20F2C04F117
:101030002003F1D858F823000028EDD0D9F800306B
:1010400001219847E8E7DDB1114FDFF840800E4EEF
:1010500004E00123A340ED1AF36211D0B5FA85F440
:10106000C4F11F04E4B20F2C04F12003F1D857F8A7
:1010700023000028EDD0D8F8003002219847E8E797
:1010800003B0BDE8F08F00BF8080024078030010FD
:101090007C030010B1F1FF3F28D0F8B504461E468E
:1010A000134B21F01F0501F01F00124F21F05F01CB
:1010B00099423A602560606004D00F48FFF75EFDFA
:1010C000256860680A4B0D499D420CBF024600F13D
:1010D00020020B4BA260152043F82260FFF79CFE14
:1010E000084B4FF400121A600020F8BD0846704704
:1010F00000C009207803001078A50100750F0000DA
:101100007C03001000E100E08268024B002143F8FC
:10111000221070477C03001030B403682E4CA342A9
:101120001DD02E4DAB4212D1456801232C4CAB4053
:101130000129E3622BD02A4940680123002A33D1D8
:1011400030BC4A6B834022EA03034B63704701299A
:1011500016D0A3420AD0AB42EDD030BC70474568F0
:1011600001231F4CAB400129E36025D01C49406896
:10117000012392B130BC4A69834013434B617047ED
:10118000A34216D0AB42E8D1436801FA03F31449F5
:10119000EAB10A6B13430B63DFE74A69834022EA33
:1011A00003034B6130BC70474A6B834013434B636E
:1011B000D3E7436801FA03F309491AB10A691343F3
:1011C0000B61CAE70A6922EA03030B61C5E70A6BF0
:1011D00022EA03030B63C0E700C0092040C00920D6
:1011E0008080024000F16040A0F51C2003099B00B4
:1011F00003F1804303F5303300F00F0010B44000DA
:101200001C680322824024EA02021A601A688140A4
:101210000A431A605DF8044B704700BF00F160405C
:10122000A0F51C2043099B0003F1804303F53033F4
:1012300030B400F01F029C6EC1F3800505FA02F283
:1012400024EA02049C669C6E22439A6695B90309BF
:101250009B0003F1804303F5303300F00F001C6C5A
:1012600040000322824024EA02021A641A6C814080
:101270001143196430BC704770B50C460546002117
:10128000204611F039F8F0B920464FF07E5111F0A8
:1012900051F808B14FF07E540C4EB06910F036FE94
:1012A000214610F08BFE11F075F8B36907498342AF
:1012B0002B6808BF0130186028790A6D012383402C
:1012C00013430B6570BD0024E6E700BF00800140BA
:1012D0000E4B0F4A1B6810B403FB01F1022454604B
:1012E000916193693BB100680368926903FB01F166
:1012F000B1FBF2F10160064B09211A6D5DF8044B58
:1013000042F001021A655960704700BF3C040010AA
:101310000080014010B504460846054910F04EFE15
:1013200011F012F801462046BDE81040FFF7D0BF8B
:1013300000247449F8B50E461E4D04462946304631
:10134000FFF7B4FC1C491D4FD1F8C430C2B257F8A6
:10135000227043F0400320712760C1F8C430D1F8F7
:10136000A801174B4FF0000E20F440500227C1F89F
:10137000A801C3F80CE05F61D96C0120083200FAC3
:1013800002F20A430F49DA640B680F490F4AA1FBC6
:10139000031320461B0D44F620611360FFF798FFEE
:1013A00020460021FFF768FF30462946BDE8F84097
:1013B000FFF73CBCA8A5010000C00F40D000001002
:1013C00000800140CC00001083DE1B433C04001071
:1013D000174B9968C1F34201012918D0022914D191
:1013E000144A516F013106D0D2F88010906F086016
:1013F00092F8A61091B1106F0E4BB8B193F8A630C9
:1014000023B10D4B00211B68184770477047094BEB
:10141000186F0028FAD0084B1B681847596821F04C
:1014200001015960106F034B0028E7D1704700BFDE
:1014300000800940480400104404001070B503689F
:10144000284CA34247D03FDD274CA34229D004F5C6
:101450008044A34242D1254C082632BB01290BD03F
:101460004268234CC2EBC20204EBC20292F836403F
:1014700030325279D44213D1B1FA81F45D6801223D
:1014800002FA01F125EA01015960036864095B6809
:1014900002FA04F1194203D1164BB240C3F880207E
:1014A00070BD154C0726002AD8D05A68012505FAC8
:1014B00001F10A4376B25A6021463046FFF7ACFC90
:1014C0000C4BB5401D6070BDA4F58044A34205D10E
:1014D0000A4C0526C1E70A4C0626BEE7002426462C
:1014E000BBE700BF00000140008009400515000077
:1014F0004804001000E100E0D1130000791500005D
:10150000E1150000194B9968C1F3420101291BD074
:10151000022917D1164AD2F8AC10013107D0D2F8FF
:10152000B810D2F8B000086092F8DE10A1B1D2F87D
:10153000A8000F4BC8B193F8DE3023B10D4B00214A
:101540001B68184770477047094BD3F8A80000285C
:10155000F9D0084B1B681847596821F00101596000
:10156000D2F8A800024B0028E5D1704700C009401E
:101570004804001044040010164B9968C1F342015E
:10158000012917D0022913D1134A5168013105D01E
:1015900011699068086092F8361091B110680E4B8E
:1015A000B8B193F8363023B10C4B00211B681847B3
:1015B00070477047084B18680028FAD0074B1B6823
:1015C0001847596821F0010159601068024B002842
:1015D000E7D1704700C000404804001044040010E8
:1015E000164B9968C1F34201012917D0022913D182
:1015F000134AD16B013105D0916C106C086092F8E0
:101600006E1091B1906B0E4BB8B193F86E3023B160
:101610000C4B00211B68184770477047084B986BAC
:101620000028FAD0074B1B681847596821F00101C0
:101630005960906B024B0028E7D1704700000140D1
:1016400048040010440400102DE9F04F02686A4B72
:1016500089B09A420790069200F0BC8040F3A780C0
:10166000664B0698984200F0898003F580439842C3
:101670000CD1634BD3F8AC2122F44022C3F8AC2147
:10168000D3F8AC2142F48022C3F8AC215D4A0B01AF
:101690001268B2FBF3F003FB1023039280B2002B1D
:1016A00000F08380039B4FF001085A009C00944691
:1016B000A246C3468E4699460023049205940090A4
:1016C0000291019300242546029E5FFA88F7BCF13F
:1016D000000FB5BFBCFBF6F0BAFBF6F000094009FD
:1016E0000130C0F34F0008EB0402002854D1002C55
:1016F0007ED00220034603FB02F3DB00B9FBF3F3C9
:101700000133C1EB5303002BB8BF5B42734505DACD
:101710008B4246D09E46BB468DE821000134E5B29F
:10172000BD420E44D3D3039B08F101089944049BA6
:10173000B8F1100F9C44059B9A44029B0B44029302
:10174000C0D1019B009843EA0B15EDB20699C0F396
:1017500007220B7BC0B243F080030B7307990B6821
:101760001A710B6818700B6883F828500A68137B8D
:1017700003F07F03137309B0BDE8F08F204BD3F85B
:10178000AC2122F44032C3F8AC21D3F8AC2142F4AE
:101790008032C3F8AC2179E7002CABD00128A9D85E
:1017A000A7E745EA0715EDB2D0E71025CEE7A3F588
:1017B00080439A427FF46AAF114BD3F8A82122F0FC
:1017C000C002C3F8A821D3F8A82142F04002C3F810
:1017D000A8215BE70A4BD3F8A82122F44072C3F892
:1017E000A821D3F8A82142F48072C3F8A8214DE7BC
:1017F000012003467FE700BF000001400080094050
:1018000000C00F40CC000010436810B40448054CE1
:10181000C3EBC30344F8332001605DF8044B704709
:1018200044040010480400100268137DDB07FCD557
:1018300043680949C3EBC30301EBC303596810783C
:101840000131C0B206D059699B680B60536843F000
:1018500001035360704700BF480400100368187DFF
:1018600000F00100704700BF4368174AC3EBC30391
:10187000DB00D11810B4CC69013411D00B460A6BCF
:101880001C335B6812681A4203D000205DF8044BD9
:10189000704703685DF8044B187DC0F380107047F3
:1018A00003681B7D9B0608D491F834005DF8044B57
:1018B0000F288CBF002001207047002381F83430AE
:1018C00001205DF8044B70474804001038B5044609
:1018D0000D462046FFF7C8FF0028FAD02368EDB276
:1018E0001D706368054AC3EBC30302EBC30393F89F
:1018F0003420013283F8342038BD00BF4804001082
:101900002DE9F04F04464648256883B085420F46CE
:101910009146019343D0D4F804A000255346414E8C
:101920004FEACA08C3EBC303CAEB080E002006EB5C
:10193000CE0E4FF0FF3B06EBC3030146024683F891
:101940003500CEF81CB02046CEF804B0FFF776FD87
:1019500017B903B0BDE8F08F33494846FFF798F94F
:10196000324983460198FFF793F9BB1E012B37D903
:10197000012FEED1B9F1FF3FEBD0294B22680721AF
:101980009B45117213D195B148462B7C264943F0F3
:1019900040032B7403B0BDE8F04FFFF747B92B7C31
:1019A000D4F804A003F03F032B746368B7E7CAEBD5
:1019B000080806EBC8004946012504300022FFF75D
:1019C00017F920462A4663680021C3EBC30306EBE0
:1019D000C30686F8355003B0BDE8F04FFFF72EBDC3
:1019E000019B01330AD00E4B98420DD0CAEB080080
:1019F00006EBC00001991C30FFF7D2F8032FA8D1E5
:101A0000B9F1FF3FB9D1A4E7002DEFD02B7C0198AD
:101A100043F080032B740549FFF708F9EEE700BF98
:101A200000000140480400105CA6010058A7010016
:101A30002DE9F04105460F46084659491646FFF77D
:101A400035F9584904463046FFF730F9014620463B
:101A5000FFF70CF9544B0446984228607FD06FD9A9
:101A6000524B98424BD003F58043984206D1504ADE
:101A7000D2F8C43043F00073C2F8C430012323729B
:101A80002B684FF00008C3F8048028464FF4165125
:101A9000FFF7DAFD2B6803221A7338464049FFF737
:101AA000C5F830463F49FFF7C1F87A1C03D03846E5
:101AB0004146FFF7B3FB731C03D030460021FFF70C
:101AC000ADFB394B9C4247D021D9384B9C4263D067
:101AD00003F580439C424AD103236B60354CC3EB32
:101AE000C3034FF0FF3604EBC304284632463346A7
:101AF0006660E6610021BDE8F041FFF701BF2C4AB6
:101B0000D2F8C43043F08073C2F8C430B6E7A3F50E
:101B100080439C422BD1274E4FF0FF340021696057
:101B20002246234628467460F461FFF7E9FE224B03
:101B300001221A6028686968204B03C3BDE8F08160
:101B4000A3F58043984299D1194AD2F8C43043F0A2
:101B50000803C2F8C43091E701236B60BEE7144A62
:101B6000D2F8C43043F01003C2F8C43086E76E6880
:101B7000104BC6EBC6064FF0FF3703EBC6063A46DE
:101B80003B46284600217760F761FFF7B9FE0C4B12
:101B90009C42CCD0BDE8F08102236B609EE700BF81
:101BA000ECA6010080A60100000001400080094071
:101BB00000C00F404804001040040010741B0010C7
:101BC00000C0004038B51249124B01241C60D1F806
:101BD000C430114A43F4000310480025C1F8C43052
:101BE0001567036801F1437101F5F45103319B0856
:101BF000A1FB03139B0C013B022151600420D36025
:101C000007495460FFF708F9064B10221A6038BDE7
:101C100000C00F402805001000400940CC00001013
:101C20001D0D000000E100E0024B1B6803B170478E
:101C3000FFF7C8BF2805001008B5044B1B680BB997
:101C4000FFF7C0FF024B986808BD00BF28050010D1
:101C500000400940034B98615A6942F001025A6101
:101C6000704700BF00400940024A536923F0010356
:101C70005361704700400940014B01221A607047D0
:101C800000400940094A8368026053B1084B1A6852
:101C9000824201D106E01A4653688342FBD1436871
:101CA0005360704742681A60704700BF88A7010000
:101CB0002C0500100C4A836810B50446026053B12D
:101CC0000A4B1A68904201D10AE01A4653689C42B6
:101CD000FBD163685360204600F019FC204610BD1C
:101CE00042681A60F7E700BF88A701002C050010C2
:101CF00010B4074C0023027381600460436019B183
:101D0000044B1A68186042605DF8044B704700BFCE
:101D100088A701002C050010F8B50B4B07461C687E
:101D20000E467CB1A56855B128463946324613F0B7
:101D30003BFA20B9284613F02FFAB04202D064686B
:101D4000002CEFD12046F8BD2C050010007B704719
:101D5000036870B51B690021012204469847431CA3
:101D600006460ED0236820461B69002102229847B0
:101D70000546236831461B692046002298472846BD
:101D800070BD70BD10B50446064B002240F8043B00
:101D9000FFF7AEFF044B204603F10802343384E81A
:101DA0000C0010BD00A8010090A7010010B504466A
:101DB000064B03F108023433226040F8043FFFF77A
:101DC00061FF204600F0D8F8204610BD90A7010022
:101DD00038B50023036043600A7804462F2A01D0F7
:101DE000204638BD4A78002AFAD0481C20604D7839
:101DF0002F2D13D085B1034600E06AB15D1A01337F
:101E000023601A782F2AF8D1294601332360FFF77F
:101E100083FF6060204638BD2946F8E7194603462F
:101E2000F3E700BF00687047436843B110B504464C
:101E30001846FFF78BFF012803D1606810BD002012
:101E40007047002010BD00BF406830B108B5FFF7F3
:101E50007DFFB0FA80F0400908BD704743684BB180
:101E600010B504461846FFF771FF28B9606818B12D
:101E7000043810BD00207047002010BD40680030BD
:101E800018BF0120704700BF002280E80600826171
:101E9000704700BF002380E80A00704703680146CE
:101EA00003B11847406810B18B6908311847704773
:101EB00010B50446034B40F81C3BFFF725F92046BC
:101EC00010BD00BFD8A7010010B50446044B40F870
:101ED0001C3BFFF719F9204600F019FB204610BD06
:101EE000D8A70100012905D0022902D14430FFF70B
:101EF000D5BF70472830FFF7D1BF00BF70B504468B
:101F00000E46114B002580E828008560C5600561FC
:101F100045618561C5610562456229462830FFF744
:101F2000B3FF294604F14400FFF7AEFF31462346D4
:101F3000064A04F11C00FFF7ADF8201D3146FEF7FC
:101F40002FFE204670BD00BFD8A70100E51E00008F
:101F50008269836812681A4214BF0120002070470A
:101F600002480349034AFFF763BD00BF741B00101A
:101F700002C0092003C00920084A094B10B40260BE
:101F800003F58071002453F8042F824208BF1C60BF
:101F90008B42F8D15DF8044B704700BF00A80100E8
:101FA0002C050010F0B50E4685B03749054612F0F5
:101FB00048FC28B9354B1B68002B42D005B0F0BD5A
:101FC0002846334912F03DFC30B9304B1B68002BDA
:101FD00042D0012005B0F0BD28462E4912F031FC58
:101FE000002834D02C4B002402E00134402C3CD09B
:101FF00053F8042F002AF8D12B783A2B3CD02946ED
:1020000002A8FFF7E5FE02A8FFF738FF68B302A8B1
:10201000FFF71AFF20BB02A8FFF706FF054620B313
:10202000036802A89F68FFF7FDFE32460146284676
:10203000B8470346CBB1194AE01C42F8243005B03A
:10204000F0BD0190FFF78CFF019805B0F0BD0F4B7C
:102050001B686BB10220B1E7FFF782FF0120ADE7FB
:1020600002A8FFF7FBFE0346E4E74FF0FF30A5E7C9
:10207000FFF776FF0220A1E72846094902AA12F0DD
:1020800071FB029BD6E700BFE0A7010040040010EF
:10209000F0A70100E8A701002C0500103005001092
:1020A00028A8010002280ADD074AC31E52F82300AF
:1020B000002142F8231020B103685B681847002014
:1020C00070474FF0FF30704730050010022812DCD7
:1020D0000E4B70B51B680C4616460BB9FFF740FF58
:1020E000A51936B114F8011B0948FFF7EFFBAC4204
:1020F000F8D1304670BD074B033853F8200010B1BB
:1021000003681B6818474FF0FF3070474004001009
:10211000741B00103005001002280DDC0C4B10B5AC
:102120001B680C460BB9FFF71BFF0A48FFF77CFB47
:1021300001232070184610BD074B033853F82000C8
:1021400010B103689B6818474FF0FF33184670477B
:1021500040040010741B001030050010022807DD39
:10216000064B033853F8200020B10368DB6818479A
:10217000012070474FF0FF30704700BF300500105E
:10218000022807DD064B033853F8200020B103680E
:102190001B691847002070474FF0FF30704700BFA1
:1021A00030050010022808B504D84FF400534B60E6
:1021B000002008BD10F03EFC092303604FF0FF3003
:1021C00008BD00BF704700BF704700BF08B5FFF7EC
:1021D000FBFFFFF7F7FFBDE80840FDF7C7BF00BFF3
:1021E000074A13681918EFF30880814202D2184693
:1021F00011607047034B0C221A604FF0FF3070479C
:10220000EC0000107C1B00100A4C08B52368054642
:10221000986810F031FD2368D86810F02DFDFEF7A6
:1022200003FD20B905B9FEE7FEF76EFCFBE7FEF7FC
:1022300057FDF7E7D4010010002112F0DEB900BF0E
:10224000C1EBC10100EB81000C30FFF727BE00BFDE
:10225000F8B5044616460F460E4B002580E82800C8
:10226000856029460C30FFF70FFE294604F128004F
:10227000FFF70AFE251D4FF41653394632466364B4
:102280002846FFF7D5FB284622460349FFF7BCFA4C
:102290002046F8BD40A80100412200000430FFF7AD
:1022A000DDBA00BF0430FFF7BFBA00BF10B50C465F
:1022B0000430FFF70BFB204610BD00BFFFF7F2BF55
:1022C000A0F14800FFF7FABFFFF7F0BFA0F1480008
:1022D000FFF7FABF38B504461D46FFF7B9FF294698
:1022E00004F1480000F044F8054B204603F10801D2
:1022F00003F1200254332160A264E36438BD00BFBF
:1023000048A8010000207047F8B58E18B1420F466A
:102310000ED005460C4601E0A64207D02B682846A1
:102320005B6A14F8011B98470130F5D1E01BF8BD3A
:102330000C46FBE7F8B58E18B1420F460ED00546A5
:102340000C4603E004F8010BA64205D02B68284692
:102350009B6A9847431CF5D1E01BF8BD0C46FBE790
:102360000020704700207047002070470020704711
:1023700010B5044684B0FFF705FD0B4B002203F1B6
:1023800008013C3384E80A00626101A8224607493B
:1023900012F0C4F9064901A810F0A4FD6061FFF72E
:1023A0004BFF204604B010BDA8A8010028A80100DA
:1023B000F0A8010010B50446064B406903F108027D
:1023C0003C3384E80C0010F0A1FB2046FFF7EEFC44
:1023D000204610BDA8A801000EB430B5044682B056
:1023E00005AB53F8045B4069019310F045FC2946A6
:1023F0006069019A11F02EFE02B0BDE8304003B0D2
:10240000704700BF10B5044601694368194400F0E5
:1024100043F804F11400BDE81040FFF73FBD00BFD2
:1024200010B5044600F03CF804F114000021BDE8AA
:102430001040FFF72FBD00BF38B50C46054600F031
:102440002FF82C61FFF7F8FB01192846BDE838404A
:1024500000F022B803689B68184700BF10B5044617
:10246000054A002380E80C008360C3600348FEF740
:102470004BFC204610BD00BF18A9010055240000E8
:1024800010B50446034B40F8043BFEF78DFC204694
:1024900010BD00BF18A9010002460430FEF762BC5F
:1024A0000430FEF781BC00BF0649074A074B9A4239
:1024B000BEBF51F8040B42F8040BF8E7044880470C
:1024C0000448004758CD0100C8000010AC020010BD
:1024D000550E0000AD0A0000FEE7FEE7FEE7FEE74E
:1024E000FEE7FEE7FEE7FEE7FEE7FEE710B50028A1
:1024F00014BF044601242046FEF7F2FA30B900F07A
:1025000009F808B9FEF7F8FA8047F4E710BDFEF7BE
:10251000EDBA0000024B1868BFF35F8F704700BF31
:102520003006001003460846194610F075BAFFF74A
:10253000EEBFFFF7DBBF00002DE9F843314D8046C9
:102540002B685A1C2A60002B58D12F4C2F4B01228C
:102550001A7023682E48996800F0CEFA23682D4837
:10256000596800F0C9FA23682B4FD968DFF8D49076
:102570002A482B4E00F0C0FA384625490BF0C8FF18
:10258000244948460BF04EFD304624490BF0C0FF6D
:10259000224924480BF0BCFF3369776743F40053AA
:1025A00033612368C9F8787099681F4800F0B4FA5D
:1025B00023681E48596800F0AFFA23681C4ED9689A
:1025C0001C4F1D4800F0A8FA1C4C174930460CF06F
:1025D00015F8164938460BF08FFD174920460CF0C8
:1025E0000DF8174814490CF009F82369BE6743F445
:1025F000005323612B68666701332B604046BDE8BA
:10260000F88300BF8C0C0010D4010010F000001003
:102610003C0C0010D00A0010B40900108C09001006
:1026200024070010880B001064090010FC0600103D
:10263000B007001040080010140C0010F80A001039
:10264000D4080010400A00100D4A10B51368044663
:10265000591E022B116011D10A480BF0ACFF0A4839
:102660000BF0A9FF09480BF0A6FF09480CF019F878
:1026700008480CF016F808480CF013F8204610BD76
:102680008C0C0010B409001024070010880B0010F7
:10269000B0070010F80A0010D408001010B5044666
:1026A000024B03600DF046FC204610BD30A901002E
:1026B00010B50446024B03600DF03CFC204610BDF3
:1026C00040A9010010B50446FFF7E8FF2046FFF7D8
:1026D0001EFF204610BD10B50446FFF7E9FF204657
:1026E000FFF715FF204610BD08B5836F0BB941F009
:1026F00001014161426903691A4202D001480CF0AC
:102700000DF808BD9AA9010008B543691943FFF700
:10271000EBFF08BD10B504460DF0CAFB074B204681
:102720002360002384F87430236784F87530A3672E
:10273000E367C4F88030C4F8843010BD30A90100CC
:1027400038B5044608460D4607F01EF910B1284674
:1027500006F0F8FDE067284607F034F910B1284686
:1027600006F0E0FEC4F88000284607F049F910B1F1
:10277000284606F0F5FEC4F8840038BD38B5044696
:102780000D460BF027FC04F16C012046FFF7D8FF43
:10279000B5FA85F10023490984F8743084F875305E
:1027A00023672361A567616138BD000008B5C36F69
:1027B0000BB941F001014161426903691A4202D03B
:1027C00001480BF0ABFF08BD9AA9010008B54369A9
:1027D0001943FFF7EBFF08BD10B504460DF068FB89
:1027E000074B2046236000232367636784F8783013
:1027F000E367C4F88030C4F88430C4F8883010BD72
:1028000040A9010038B5044608460D4600F098FF7F
:1028100010B1284600F0C2FEC4F88000284600F03F
:10282000ADFF10B1284600F0F5FEC4F8840028463C
:1028300000F0C2FF10B1284600F00AFFC4F888007B
:1028400038BD38B504460D460BF0C4FB04F16C01ED
:102850002046FFF7D7FFB5FA85F1002349096367E2
:1028600084F8783023672361E567616138BD82B001
:1028700037B5044606AD85E80C00002200920A9A9E
:102880000B6801921D69DDE90623A847204603B0C5
:10289000BDE8304002B0704782B037B5044606AD9F
:1028A00085E80C00002200920A9A0B6801921D69CB
:1028B000DDE90623A847204603B0BDE8304002B05A
:1028C0007047000010B50446024B03600BF0D4FCC7
:1028D000204610BD00AA010010B50446024B03605B
:1028E0000BF0BEFC204610BDC0A9010010B5044687
:1028F000FFF7E8FF2046FFF70AFE204610BD10B59F
:102900000446FFF7E9FF2046FFF701FE204610BD11
:1029100010B50446006A10F0E3FC606210BD10B50B
:102920000446006A10F0DCFC216ABDE8104013F098
:10293000CBBC4A1C10B5044603D1406A431C01D1EC
:1029400003E00846216A13F0BFFC4FF0FF336362D7
:1029500010BD006A10F090B9006A10F08DB938B55A
:1029600004460D464FF0FF304FF0FF31049BC4E9A1
:1029700000010020A060E0601BB1012B0CBF01230F
:1029800002231146286A1A4610F01AFB28B9286A51
:1029900010F0B0FBC117C4E90001204638BD38B5BE
:1029A00004460D464FF0FF304FF0FF31049BC4E961
:1029B00000010020A060E0601BB1012B0CBF0123CF
:1029C00002231146286A1A4610F0FAFA28B9286A32
:1029D00010F090FBC117C4E90001204638BD10B5C6
:1029E0000446006A10F0ACFC606210BDF8B5064603
:1029F0000F4614460025A54205D0306A10F0A0FC11
:102A0000431C07D12C464CB104F18043013B57F8DD
:102A1000233005E047F825000135ECE74FF0FF33A0
:102A200073622046F8BD10B50446006A10F088FCB9
:102A3000216ABDE8104013F077BC4A1C10B504466B
:102A400003D1406A431C04D000E00846216A13F019
:102A50006BFC4FF0FF33636210BDF8B506460F46BE
:102A600015460024AC420AD057F82400316A11F010
:102A7000C5FC013001D1254601E00134F2E72846CA
:102A8000F8BD034608461B6A012110F019BC38B591
:102A900005460C462B6A0846012110F07FFA0028F3
:102AA000C6BF241814F8013C4FF0FF336B6238BDE9
:102AB0004A1C08B5034605D00846196ABDE8084017
:102AC00011F092BC006A10F0D7F8003018BF012056
:102AD000404208BD4A1C08B5034605D00846196A9D
:102AE000BDE8084011F08ABC006A10F0C5F800305B
:102AF00018BF0120404208BD38B504460D460BF012
:102B0000A9FC044B256223604FF0FF33636220462B
:102B100038BD00BFC0A9010038B504460D460BF012
:102B2000CFFC044B256223604FF0FF3363622046E5
:102B300038BD00BF00AA01008368586970478368E8
:102B4000986970478368586B7047836800209B6B57
:102B500082B0DAB262F30700C3F3072262F30F20F8
:102B6000C3F3074262F317401B0E63F31F6002B00A
:102B7000704783680020DB6B82B0DAB262F3070033
:102B8000C3F3072262F30F20C3F3074262F3174037
:102B90001B0E63F31F6002B070478368586970476B
:102BA0008368986970478368586B70478368002012
:102BB0009B6B82B0DAB262F30700C3F3072262F3C1
:102BC0000F20C3F3074262F317401B0E63F31F602D
:102BD00002B0704783680020DB6B82B0DAB262F328
:102BE0000700C3F3072262F30F20C3F3074262F327
:102BF00017401B0E63F31F6002B070478368586A6A
:102C000070478368986A70470020704700207047BB
:102C100070470020914204D251F8043B03EB7060EE
:102C2000F8E7704713B504468B6801AA99680CF061
:102C300007F9204602B010BD13B504468B6801AAFF
:102C400099680CF0FDF8204602B010BD13B504469B
:102C50008B6801AA99680CF0F3F8204602B010BD09
:102C600013B504468B6801AAD9690CF065FC2046AF
:102C700002B010BD13B504468B6801AA596A0CF066
:102C80005BFC204602B010BD13B504468B6801AA58
:102C9000D96A0CF051FC204602B010BD13B50446B1
:102CA0008B6801AAD9690CF047FC204602B010BD20
:102CB00013B504468B6801AA596A0CF03DFC204606
:102CC00002B010BD13B504468B6801AAD96A0CF096
:102CD00033FC204602B010BD13B504468B6801AA30
:102CE00059690CF029FC204602B010BD13B504460A
:102CF0008B6801AAD9690CF01FFC204602B010BDF8
:102D00000D4B10B5036090F86C3004467BB18068C1
:102D100008B1FFF70CFCE06908B1FFF708FC606A36
:102D200008B1FFF704FCE06A08B1FFF700FC204699
:102D30000DF086F9204610BD90AD01000D4B10B589
:102D4000036090F86C3004467BB1806808B1FFF7EF
:102D5000EEFBE06908B1FFF7EAFB606A08B1FFF734
:102D6000E6FBE06A08B1FFF7E2FB20460DF068F9E8
:102D7000204610BDA0AD010010B50446024B036013
:102D80000DF05EF9204610BD20AD010010B50446DF
:102D9000024B03600DF054F9204610BD38AD010020
:102DA0000B4B10B5036090F8243104465BB180688A
:102DB00008B1FFF7BCFB606908B1FFF7B8FBE06939
:102DC00008B1FFF7B4FB20460DF03AF9204610BDDC
:102DD000B0AD010010B50446024B03600DF030F9B0
:102DE000204610BDD0AB010010B50446024B036075
:102DF0000DF026F9204610BD10AC010010B50446B8
:102E0000024B03600DF01CF9204610BD40AC0100E0
:102E100010B50446024B03600DF012F9204610BDB8
:102E200050AD010010B50446024B03600DF008F9E7
:102E3000204610BD68AD010010B50446FFF760FFE5
:102E40002046FFF764FB204610BD10B50446FFF78F
:102E500075FF2046FFF75BFB204610BD10B504460A
:102E6000FFF78AFF2046FFF752FB204610BD10B542
:102E70000446FFF78BFF2046FFF749FB204610BDB5
:102E800010B50446FFF78CFF2046FFF740FB2046B5
:102E900010BD10B50446FFF79DFF2046FFF737FB36
:102EA000204610BD10B50446FFF79EFF2046FFF7F1
:102EB0002EFB204610BD10B50446FFF79FFF2046AD
:102EC000FFF725FB204610BD10B50446FFF7A0FF15
:102ED0002046FFF71CFB204610BD10B50446FFF747
:102EE000A1FF2046FFF713FB204610BD10B5044696
:102EF000044B40F8083B0DF0E7FA20460DF0A0F82F
:102F0000204610BDD0AC010010B50446FFF7EEFF1F
:102F10002046FFF7FCFA204610BD000010B504461D
:102F2000044B40F8083B0DF0CFFA20460DF088F82E
:102F3000204610BD48AB010010B50446FFF7EEFF78
:102F40002046FFF7E4FA204610BD000038B50D4BCF
:102F50000569036004460DF099F8854203D015B168
:102F60002846FFF7E4FAA06810B103685B68984749
:102F700004F10C000DF0A8FA20460DF061F820468F
:102F800038BD00BF50AC010010B50446FFF7DEFFAE
:102F90002046FFF7BCFA204610BD2DE9FF411C4634
:102FA000804603AB02A80CF0DDFA214603A80A9A7A
:102FB00001AB0CF0D7FA029D039C55F80C7C54F839
:102FC0000C6C05EB870704EB860640462946224633
:102FD0000AF0EFFFA8B9284613F044FF05EB80057F
:102FE000204613F03FFFBD4204EB800004D1841B58
:102FF00018BF4FF0FF3407E0B04204D00435041D81
:10300000E3E7044600E0012403A80CF019F802A845
:103010000CF016F8204604B0BDE8F0812DE9F74326
:103020001C461546284B0746036089466B461146E9
:1030300001A822460CF096FA641B019E6410B4F1BC
:10304000FE5F56F80C3C94BFA0004FF0FF3006EB3B
:103050008308FFF76EFA054632464846294623465E
:103060000AF0B3FFA042024613D3441C2846FFF7E0
:103070005EFAB4F1FE5F94BFA0004FF0FF30FFF79F
:1030800058FA054632464846294623460AF09DFF2F
:103090000246294638460CF05FF9304613F0E2FE4E
:1030A00006EB8000404505D0061D002138460CF097
:1030B000E8F9D1E72846FFF73AFA01A80BF0C0FF7C
:1030C000384603B0BDE8F083800C00100A2807D80A
:1030D0002F2917D93030814214D2A1F13000704726
:1030E000A1F1300009280FD9A1F16103052B02D805
:1030F000A1F157007047A1F14103052B02D8A1F1BE
:10310000370070474FF0FF307047000008B4F3B548
:103110000F460420002110F0E9F91649064611F087
:1031200090FB80B1304612F037F8451C2846FFF777
:1031300000FA31462A46044610F0A8FA0D49042048
:1031400010F0D4F900E0044608AA38460799019225
:1031500013F02AF9054634B10420214610F0C6F9CF
:103160002046FFF7E4F9284602B0BDE8F04001B080
:10317000704700BF29C5010010B504460032064B58
:1031800018BF012281600021426003600A460DF0F1
:10319000A9FA204610BD00BF98AC010003689B68E7
:1031A00018470368DB68184710B504460B681B69AD
:1031B0009847204610BD10B504460B685B699847D8
:1031C000204610BD10B504460B689B699847204601
:1031D00010BD10B504460B68DB699847204610BD4A
:1031E00003681B6A1847036807B55B6A984703467C
:1031F0000020DAB262F30700C3F3072262F30F2064
:10320000C3F3074262F317401B0E63F31F6003B062
:103210005DF804FB036807B59B6A984703460020E6
:10322000DAB262F30700C3F3072262F30F20C3F39D
:10323000074262F317401B0E63F31F6003B05DF893
:1032400004FB000010B504460032064B18BF0122F3
:1032500081600021426003600A460DF0F9F92046C2
:1032600010BD00BF60AC010003689B68184703688D
:10327000DB68184710B504460B681B699847204661
:1032800010BD10B504460B685B699847204610BD19
:1032900010B504460B689B699847204610BD10B5D1
:1032A00004460B68DB699847204610BD03681B6A1B
:1032B0001847036807B55B6A984703460020DAB2EF
:1032C00062F30700C3F3072262F30F20C3F3074240
:1032D00062F317401B0E63F31F6003B05DF804FB3D
:1032E000036807B59B6A984703460020DAB262F389
:1032F0000700C3F3072262F30F20C3F3074262F310
:1033000017401B0E63F31F6003B05DF804FB000061
:103310000B4A003118BF0121026000224160826027
:10332000C260027442618261C26102624262826270
:10333000C262026342638263C26380F86C2070479A
:1033400090AD01000B4A003118BF0121026000223C
:1033500041608260C260027442618261C261026245
:1033600042628262C262026342638263C26380F825
:103370006C207047A0AD010010B504460032054B2B
:1033800018BF012242600360816000210DF0EAFA5B
:10339000204610BDA8AB010003689B68184703686E
:1033A000DB68184710B504460B681B699847204630
:1033B00010BD10B504460B685B699847204610BDE8
:1033C00010B504460B689B699847204610BD000065
:1033D000094A003118BF0121026000224160826069
:1033E000C260027442618261C261026242628262B0
:1033F00080F82421704700BFB0AD01000032084BB7
:1034000018BF012210B542600360816004460CF0D1
:103410003DFE00212061204605F010F8204610BD39
:1034200050AC010083689B680B608368DB684B606D
:10343000704783681B690B6083685B694B607047EA
:1034400083689B690B608368DB694B6070478368A6
:10345000DB6A0B6083681B6B4B6083685B6B8B6004
:1034600083689B6BCB608368DB6B0B6183681B6C31
:103470004B6183685B6C8B61704783689B6C0B60EE
:103480008368DB6C4B6083681B6D8B6083685B6D4E
:10349000CB6083689B6D0B618368DB6D4B618368D8
:1034A0001B6E8B61704783685B6E0B6083689B6EDD
:1034B0004B608368DB6E8B6083681B6FCB608368B7
:1034C0005B6F0B6183689B6F4B618368DB6F8B6104
:1034D0008368D3F88030CB618368D3F884300B6283
:1034E0008368D3F888304B628368D3F88C308B6262
:1034F0008368D3F89030CB6270478368D3F89430F8
:103500000B608368D3F898304B608368D3F89C30A5
:103510008B608368D3F8A030CB608368D3F8A43085
:103520000B618368D3F8A8304B618368D3F8AC3063
:103530008B618368D3F8B030CB618368D3F8B43043
:103540000B628368D3F8B8304B628368D3F8BC3021
:103550008B628368D3F8C030CB6270470031064B72
:1035600018BF012110B54160036004460CF082FDD4
:10357000A060204610BD00BFD0AC01000031064B5A
:1035800018BF012110B54160036004460CF072FDC4
:10359000A060204610BD00BF48AB010010B5044636
:1035A0000A480CF0FBFD23685A689B68984202D2D7
:1035B00052F8200008B90BF089F80549054A0023A4
:1035C0000CF06AF808B90CF0C1F810BD840C0010BA
:1035D000D8C40100B0C2010010B504460A480CF07E
:1035E000DDFD23685A689B68984202D252F8200099
:1035F00008B90BF06BF80549054A00230CF04CF8AC
:1036000008B90CF0A3F810BD80060010D8C4010062
:103610003CB1010010B504460A480CF0BFFD236818
:103620005A689B68984202D252F8200008B90BF001
:103630004DF80549054A00230CF02EF808B90CF0A6
:1036400085F810BD78060010D8C4010078AE0100DE
:1036500010B504460A480CF0A1FD23685A689B681F
:10366000984202D252F8200008B90BF02FF8054911
:10367000054A00230CF010F808B90CF067F810BDEB
:103680007C060010D8C4010018AF010010B5044634
:103690000A480CF083FD23685A689B68984202D25E
:1036A00052F8200008B90BF011F80549054A00232B
:1036B0000BF0F2FF08B90CF049F810BD8C060010B1
:1036C000D8C4010054B0010010B504460A480CF0FB
:1036D00065FD23685A689B68984202D252F8200020
:1036E00008B90AF0F3FF0549054A00230BF0D4FF9F
:1036F00008B90CF02BF810BD90060010D8C40100DA
:1037000058AE010010B504460A480CF047FD236886
:103710005A689B68984202D252F8200008B90AF011
:10372000D5FF0549054A00230BF0B6FF08B90CF098
:103730000DF810BD74060010D8C40100BCB0010023
:1037400010B504460A480CF029FD23685A689B68A6
:1037500098420BD252F8200048B10649064A00238D
:103760000BF09AFF003018BF012010BD002010BDE3
:10377000840C0010D8C40100B0C2010010B504468A
:103780000A480CF00BFD23685A689B6898420BD2DC
:1037900052F8200048B10649064A00230BF07CFF8E
:1037A000003018BF012010BD002010BD78060010A9
:1037B000D8C4010078AE010010B504460A480CF0E8
:1037C000EDFC23685A689B6898420BD252F820009F
:1037D00048B10649064A00230BF05EFF003018BFCF
:1037E000012010BD002010BD7C060010D8C40100CF
:1037F00018AF01002DE9F04100263746069CDDF8A0
:103800001CE012F807C0C4EB0E08BCEBA80F02EBDB
:10381000070502DB071F23460CE04FFA8CF8B8F1CE
:10382000000FF7DD5D1EAF42AEEB8C0E34BF0137EB
:103830000136E6E7734504D053F804CB47F804CFCC
:10384000F8E71C1B24F00304204416F1FF3611D3C3
:1038500001602C78844627469E4637B15EF8048B7B
:10386000013F4CF8048FFFB2F7E7A400271D38444E
:103870002344EAE72C46944212D0016014F8015D1B
:1038800086462E461F4636B157F804CB013E4EF809
:1038900004CFF6B2F7E7AD002E1D30442B44EAE723
:1038A000BDE8F081F7B5089F96468C46099C0A9AB8
:1038B0000B9E17B1BD1AAD1000E03568009202EB07
:1038C000850201922046194662467346FFF792FF31
:1038D000041BA4103FB132683946521B13F061FC3F
:1038E00033685D1B2C44346003B0F0BDF7B50F4660
:1038F00016460A9A0B9D00922968099C02EB8102E8
:103900000192194620463A463346FFF773FF001BE3
:103910008010286003B0F0BD30B59DF80C4074B144
:1039200003460A24B1FBF4F504FB1511043152F8E7
:10393000211043F8041D2946002DF2D11DE003F0AB
:103940004A04402C0AD1034601F00704043452F81B
:103950002440C90843F8044DF6D10EE013F4804F1B
:10396000034614BF1425042501F00F042C4452F81B
:103970002440090943F8044DF6D1C01A801030BD27
:103980002DE9F04114469DF820201D460746DDF83C
:103990001880079BBAB10646204629460A22002312
:1039A0000EF018FD043258F82230204646F8043D47
:1039B000294600230A220EF00DFD04460D4654EA66
:1039C0000503E9D12BE003F04A02402A11D1064653
:1039D00004F00703043358F82330EA0846F8043D9E
:1039E000E30843EA45731C46154654EA0503EFD144
:1039F00015E0064613F4804F14BF1421042104F08F
:103A00000F030B4458F823302A0946F8043D2309D4
:103A100043EA05731C46154654EA0503EFD1B81B6B
:103A20008010BDE8F08110B50468E46AA446BDE8E2
:103A3000104060470123F7B5044680F86C30084613
:103A40000E46FFF741FE0546FFF7A8FB60612846DA
:103A5000FFF7A7FBA0612846FFF7C2FB294660637A
:103A600001A8FFF7A1FB019B01A853F80C3CE36000
:103A70000AF052FFE068FEF75CFD0746294601A800
:103A8000FFF792FB00233946E26801A80AF09CFE8A
:103A900001A80AF041FFE368A7602BB197F9003055
:103AA000002BD4BF002301232946237401A8FFF76C
:103AB00082FB019B01A853F80C3C23620BF0C0FA77
:103AC000206AB0F1FE5F94BF80004FF0FF30FEF738
:103AD00030FD0746294601A8FFF76DFB226A3946EB
:103AE000002301A80BF022FA01A80BF0A9FA29463D
:103AF000E76101A8FFF766FB019B01A853F80C3CA6
:103B0000A3620BF09DFAA06AB0F1FE5F94BF800043
:103B10004FF0FF30FEF70DFD0746294601A8FFF7DD
:103B200051FBA26A3946002301A80BF0FFF901A856
:103B30000BF086FA2946676201A8FFF74AFB019B52
:103B400001A853F80C3C23630BF07AFA206BB0F118
:103B5000FE5F94BF80004FF0FF30FEF7EAFC07469F
:103B6000294601A8FFF735FB3946226B002301A83F
:103B70000BF0DCF901A80BF063FAE7622846FFF7C7
:103B800032FBA0632846FFF745FBE0633046FFF7B2
:103B900005FD054B196804F1400301F10B02FFF725
:103BA00042FF03B0F0BD00BF680100102DE9F041F5
:103BB00005460F480CF0F2FA2B680446DE6856F80A
:103BC0002080B8F1000F0FD17020FEF78FFC074660
:103BD0004146FFF79DFB38462946FFF72BFF286833
:103BE000394622460CF0B6FA56F82400BDE8F081BA
:103BF000900600100123F7B5044680F86C300846A3
:103C00000E46FFF743FD0546FFF72EFB6061284691
:103C1000FFF72DFBA0612846FFF748FB29466063AC
:103C200001A8FFF727FB019B01A853F80C3CE360B8
:103C30000AF072FEE068FEF77CFC0746294601A800
:103C4000FFF718FB00233946E26801A80AF0BCFD23
:103C500001A80AF061FEE368A7602BB197F9003074
:103C6000002BD4BF002301232946237401A8FFF7AA
:103C700008FB019B01A853F80C3C23620BF0E0F910
:103C8000206AB0F1FE5F94BF80004FF0FF30FEF776
:103C900050FC0746294601A8FFF7F3FA226A394685
:103CA000002301A80BF042F901A80BF0C9F929463D
:103CB000E76101A8FFF7ECFA019B01A853F80C3C5F
:103CC000A3620BF0BDF9A06AB0F1FE5F94BF800063
:103CD0004FF0FF30FEF72DFC0746294601A8FFF7FD
:103CE000D7FAA26A3946002301A80BF01FF901A8F0
:103CF0000BF0A6F92946676201A8FFF7D0FA019BED
:103D000001A853F80C3C23630BF09AF9206BB0F137
:103D1000FE5F94BF80004FF0FF30FEF70AFC0746BD
:103D2000294601A8FFF7BBFA3946226B002301A8F8
:103D30000BF0FCF801A80BF083F9E7622846FFF7C7
:103D4000B8FAA0632846FFF7CBFAE0633046FFF7E6
:103D500025FC054B196804F1400301F10B02FFF744
:103D600062FE03B0F0BD00BF680100102DE9F04114
:103D700005460F480CF012FA2B680446DE6856F828
:103D80002080B8F1000F0FD17020FEF7AFFB07467F
:103D90004146FFF7D7FA38462946FFF72BFF286838
:103DA000394622460CF0D6F956F82400BDE8F081D9
:103DB0008C0600100123F7B5044680F8243108462C
:103DC0000E46FFF709FC054601A82946FFF7EAFA67
:103DD000019B01A853F80C3CE3600AF09DFDE068EC
:103DE000FEF7A7FB0746294601A8FFF7DBFA0023E9
:103DF0003946E26801A80AF0E7FC01A80AF08CFD48
:103E0000E368A7602BB197F90030002BD4BF0023E3
:103E100001232946237401A8FFF7CBFA019B01A8CF
:103E200053F80C3CA3610BF00BF9A069B0F1FE5FF5
:103E300094BF80004FF0FF30FEF77BFB074629461A
:103E400001A8FFF7B6FAA2693946002301A80BF0D2
:103E50006DF801A80BF0F4F82946676101A8FFF797
:103E6000AFFA019B01A853F80C3C23620BF0E8F871
:103E7000206AB0F1FE5F94BF80004FF0FF30FEF784
:103E800058FB0746294601A8FFF79AFA3946226AE5
:103E9000002301A80BF04AF801A80BF0D1F8E76164
:103EA0002846FFF779FA60622846FFF778FAA062A1
:103EB0003046FFF773FB0546094B196804F12C03E4
:103EC00001F12402FFF7AFFD064B2846196804F103
:103ED000BC0301F11A02FFF7A6FD03B0F0BD00BF5D
:103EE0006C010010640100102DE9F04105461048F6
:103EF0000CF054F92B680446DE6856F82080B8F1BF
:103F0000000F10D14FF49470FEF7F0FA07464146C7
:103F1000FFF75EFA38462946FFF74CFF2868394616
:103F200022460CF017F956F82400BDE8F08100BFD6
:103F30008006001010B50446006820B10AF0A7FA08
:103F40004FF0FF336360204610BD03689B6818473D
:103F5000F7B58DE806009DF8045006466C46089FAC
:103F60003DB908463A4619460AF0A6FAB84218BFC3
:103F700001258DF8045094E8030086E803003046DC
:103F800003B0F0BD2DE9F04F8FB0DDF8608006A9D9
:103F900008F16C040590204681E80C00FFF7FEFA5A
:103FA00007462046FFF7E2FE1A9B04461D68036C95
:103FB0002A689A4255F80C3C06D0826BD0F82890BB
:103FC0000992426A039207E0C26BD0F830900992DE
:103FD000C26A039203B104353A683846566904212F
:103FE0002A4605EB8303B047401B871000F0DD80B5
:103FF000744B0DF1380A4AF8103D504679000BF029
:104000005EF9636BFE1A002E29DD36EA230628BF0F
:104010003E46E3685046F3B1710000220BF0C0F851
:1040200050460BF07FF805EB860300950193A169DC
:10403000A268E3680A98FFF7DDFB834650460BF061
:1040400071F80A995046C1EB0B0189104FF0FF320D
:104050000BF072F803E0294632460BF0D1F8636B9F
:10406000002B13DD0AA861690BF00BFA002E0AA8D9
:1040700003DB05EB8601626B06E07142626C0BF0BC
:10408000D3F929463A460AA80BF066F9D8F80C305D
:104090000EAE03F0B00204920A9A13F4007352F8C1
:1040A0000C5C18BF236A4D441D44464B690046F81A
:1040B0000C3D30460BF003F9049BD8F80870102B28
:1040C00006D1BD422CBF4FF0000B4FF0010B01E0B9
:1040D0004FF0000B4FF0000A09AB1AF80330042B25
:1040E0002AD8DFE803F02119030D1400D8F80C30AA
:1040F0009B0521D50BA8E169226A0BF02DF91BE085
:10410000B9F1000F18D0039B3046196809E030461A
:104110000AA90BF01DF90FE0BBF1000F07D13046E3
:1041200019990BF0AEF907E0BBF1000F04D00BA812
:10413000791B199A0BF078F90AF1010ABAF1040F08
:10414000CAD1B9F1010F06D903993046043109F1FA
:10415000FF320BF001F90B9B53F80C2C97420FD94F
:10416000049B3046202BA7EB020204D11146199A7A
:104170000BF05AF905E00021199B0BF01DF800E047
:1041800017460CAC009706AB93E8060020460B9B45
:10419000FFF7DEFE94E80300069030468DF81C1011
:1041A0000AF04EFF0AA80AF04BFF0023C8F80830B7
:1041B00006AB93E80300059B83E8030018460FB0A5
:1041C000BDE8F08F800C00102DE9F04F8FB0DDF8C6
:1041D000608006A908F16C040590204681E80C0077
:1041E000FFF7DCF907462046FFF7E0FC1A9B044680
:1041F0001D68036C2A689A4255F80C3C06D0826B05
:10420000D0F828900992426A039207E0C26BD0F876
:1042100030900992C26A039203B104353A68384675
:10422000566904212A4605EB8303B047401B8710DB
:1042300000F0DD80744B0DF1380A4AF8103D50460D
:1042400079000BF03CF8636BFE1A002E29DD36EA8C
:10425000230628BF3E46E3685046F3B171000022B2
:104260000AF09EFF50460AF05DFF05EB86030095BD
:104270000193A169A268E3680A98FFF7BBFA834635
:1042800050460AF04FFF0A995046C1EB0B018910C6
:104290004FF0FF320AF050FF03E0294632460AF0A1
:1042A000AFFF636B002B13DD0AA861690BF0E9F81F
:1042B000002E0AA803DB05EB8601626B06E0714263
:1042C000626C0BF0B1F829463A460AA80BF044F8A4
:1042D000D8F80C300EAE03F0B00204920A9A13F430
:1042E000007352F80C5C18BF236A4D441D44464BC2
:1042F000690046F80C3D30460AF0E1FF049BD8F80F
:104300000870102B06D1BD422CBF4FF0000B4FF0B0
:10431000010B01E04FF0000B4FF0000A09AB1AF857
:104320000330042B2AD8DFE803F02119030D140011
:10433000D8F80C309B0521D50BA8E169226A0BF057
:104340000BF81BE0B9F1000F18D0039B3046196839
:1043500009E030460AA90AF0FBFF0FE0BBF1000FAD
:1043600007D1304619990BF08CF807E0BBF1000F2C
:1043700004D00BA8791B199A0BF056F80AF1010A20
:10438000BAF1040FCAD1B9F1010F06D90399304629
:10439000043109F1FF320AF0DFFF0B9B53F80C2CBC
:1043A00097420FD9049B3046202BA7EB020204D181
:1043B0001146199A0BF038F805E00021199B0AF014
:1043C000FBFE00E017460CAC009706AB93E8060036
:1043D00020460B9BFFF7BCFD94E803000690304697
:1043E0008DF81C100AF02CFE0AA80AF029FE002302
:1043F000C8F8083006AB93E80300059B83E8030088
:1044000018460FB0BDE8F08F800C00102DE9F04F7A
:104410008DB004AF07F1080585E80C00FB6C804601
:104420008B4607F1180003F16C010BF013FE07F146
:104430001800FFF7B3F8D0B078600BF01BFED7E997
:10444000162307F1200444F8040D0DF110094FF074
:10445000000ACDE9022349465246204BCDF800A080
:104460002046FEF753FE06465246314607F1140336
:1044700020460AF0CDFD20460AF054FED7F804C0CD
:104480004E44FB69604649463246FFF7CCFA97F83E
:1044900048305BB1FB6C029400933B6D4046019346
:1044A000594695E80C00FFF76DFD0AE0FB6C02949D
:1044B00000933B6D40460193594695E80C00FFF789
:1044C00083FE20460AF0BCFD07F118000BF02CFE1D
:1044D00040462437BD46BDE8F08F00BF4EB1010015
:1044E000F0B587B004AC84E80C000D9D0E9A0F9BCC
:1044F0009DF83070009501920293064694E80C00F6
:1045000017B1FFF73FFD01E0FFF75EFE304607B051
:10451000F0BD03681B6B184703689B6A18472DE9B9
:10452000F8431D46C368DDF82480089F03F0B003FC
:10453000202B89461446C8EB07070CD129461046A4
:10454000424612F02EFE04EB880049463A46BDE88A
:10455000F84312F02CBE102B1AD16C30FFF71EF866
:104560002D210646FFF7D8FF2B68984220D0304611
:104570002B21FFF7D1FF2B68984219D0304630210C
:10458000FFF7CAFF2B68984202D1B8F1010F14DC83
:10459000002649463A46204612F009FE04EB870001
:1045A00005EB8601C6EB0802BDE8F84312F0F9BD41
:1045B0002B68012644F8043BEBE730467821FFF7EF
:1045C000ABFF6B68984206D030465821FFF7A4FF36
:1045D0006B689842DCD12B68083444F8083C6B685F
:1045E000022644F8043CD4E72DE9F04F8DB004AF27
:1045F000BE6CF860B96006F16C0007F1100181E84B
:104600000C00D7F85080FFF76FFCF56896B005F006
:104610004A0ABAF1400F044600F12C0B0DF1100CC0
:1046200002D0BAF1080F02D14FF0000904E0B8F14E
:10463000000F03DD4FF00109414603E0C8F100011E
:104640004FF001090CF150005A462B46CDF800906E
:10465000C7F804C0FFF760F9D7F804C0227CC0F1A6
:104660001403F8610CEB8303B2B1C0001030ADEB62
:10467000000D0DF1180C8DE84010029307F11C039A
:104680000393A36AB868A168E268C7F804C0FFF79B
:104690002DF9D7F804C06346FA69B9F1000F07D0C5
:1046A000B8F1000F02DB28052AD414E0E16A28E003
:1046B000A90510D5B8F1000F29D10CE0C5F380355C
:1046C00002355BF82510023243F8041CE16BFA61F5
:1046D00043F8081C083BB468F9698C421CDDA20051
:1046E0000E3222F00702ADEB020D04AD01910094F1
:1046F0003046F96C2A46FFF712FFFC612B460BE0AF
:10470000216B013243F8041CFA61043BE3E7BAF180
:10471000400FD3D1E16BF4E70022B260FA69F86888
:10472000009207F1100206CAFFF712FCF86824375E
:10473000BD46BDE8F08F2DE9F04F8BB004AFD7F840
:1047400040A007F1080585E80C00DAF80C30386065
:1047500013F0010F97F848607B6007F110040AD14D
:104760007B6CCDF800A001930296204695E80C00E2
:10477000FFF73AFF52E00AF16C00FFF7B5FB26B1F4
:10478000D0F81490D0F8188003E0D0F81C90D0F83E
:104790002080DAF80860464535DDC8EB0606B20031
:1047A0000E3222F00702ADEB020D0DF1100B324676
:1047B0005846796C12F0FBFC7B680022CAF808208E
:1047C00003F0B00ABAF1200F11D195E80600204697
:1047D0004B46CDF80080FFF7BBFB94E80300B860C0
:1047E00039730096204695E806005B4614E02046A3
:1047F00095E8060000965B46FFF7AAFB94E80300E5
:10480000B860397302E00022CAF80820204695E813
:1048100006004B46CDF80080FFF79AFB94E80300B2
:104820003B68B860397395E8030083E803001846D5
:104830001C37BD46BDE8F08F30B5054687B004ACE7
:1048400084E80C000A9B00930B9B01930C9B029342
:1048500094E80C00FFF7C8FE284607B030BD2DE9EC
:10486000F04F8BB004AF3E6C7960824607F10801CF
:1048700006F16C0081E80C00FFF736FBF46896B097
:1048800004F04A08B8F1400F054600F12C0B0DF179
:10489000100C05D0B8F1080918BF4FF0010901E06C
:1048A0004FF000090CF150005A462346CDF8009015
:1048B000B96CC7F800C0FFF72FF8D7F800C02A7C02
:1048C000C0F1140378610CEB8303B2B1C000103067
:1048D000ADEB000D0DF1180C8DE84010029307F1BF
:1048E00014030393AB6A7868A968EA68C7F800C044
:1048F000FEF7FCFFD7F800C06346B9F1000F0DD1F9
:10490000A2050BD5BA6C4AB1B8F1400F7A691AD139
:10491000E96B013243F8041C7A61043BB46879699D
:104920008C421EDDA2000E3222F00702ADEB020D1A
:1049300004AD019100943046796C2A46FFF7EFFDF3
:104940007C612B460DE0C4F3803402345BF8241004
:10495000023243F8041CE96B7A6143F8081C083BF7
:10496000DCE70022B2607A695046009207F1080243
:1049700006CAFFF7EDFA50461C37BD46BDE8F08F7A
:1049800030B5054687B004AC84E80C000A9B009360
:104990000B9B01930C9B029394E80C00FFF75FFFC5
:1049A000284607B030BD2DE9F041064688B00E9D7F
:1049B00004ACD5F80C8084E80C0028F4804323F084
:1049C0004A0343F40273EB600F9B06AF0193109B05
:1049D00000950293384694E80C00FFF740FF97E8F3
:1049E000030004908DF8141094E8030086E8030097
:1049F0003046C5F80C8008B0BDE8F0812DE9F04FD5
:104A00008BB004AF3E6C7960824607F1080106F175
:104A10006C0081E80C00FFF767FAF568AAB005F0B2
:104A20004A09B9F1400F044600F12C0B04A902D049
:104A3000B9F1080F02D14FF0000807E0D7E91223BF
:104A4000012A73F1000304DB4FF00108D7E91223B8
:104A500006E0D7E91223524263EB43034FF001080B
:104A600001F1A000CDF800B00195CDF808803960C3
:104A7000FEF786FF3968227CC0F12803786101EBDC
:104A80008303B2B1C0001030ADEB000D0DF1180C76
:104A90008DE84010029307F114030393A36A78682A
:104AA000A168E268C7F800C0FEF720FFD7F800C091
:104AB00063467A69B8F1000F0AD0D7E912010028DD
:104AC00071F1000102DB28052BD415E0E16A29E031
:104AD000A90511D5D7E91201014329D10CE0C5F38D
:104AE000803502355BF82510023243F8041CE16B77
:104AF0007A6143F8081C083BB46879698C421CDD74
:104B0000A2000E3222F00702ADEB020D04AD0191BE
:104B100000943046796C2A46FFF701FD7C612B46F4
:104B20000BE0216B013243F8041C7A61043BE3E79C
:104B3000B9F1400FD3D1E16BF4E70022B2607A699A
:104B40005046009207F1080206CAFFF701FA5046E4
:104B50001C37BD46BDE8F08F30B5054687B004ACC4
:104B600084E80C000A9B00930B9B0193DDE90C2366
:104B7000CDE9022394E80C00FFF740FF284607B078
:104B800030BD2DE9F04F8BB004AF3E6C79608246AA
:104B900007F1080106F16C0081E80C00FFF7A4F9A9
:104BA000F468AAB004F04A08B8F1400F054600F1D5
:104BB0002C0B04A905D0B8F1080918BF4FF0010962
:104BC00001E04FF00009D7E9122301F1A000CDF870
:104BD00000B00194CDF808903960FEF7D1FE396835
:104BE0002A7CC0F12803786101EB8303B2B1C000D5
:104BF0001030ADEB000D0DF1180C8DE84010029354
:104C000007F114030393AB6A7868A968EA68C7F8E8
:104C100000C0FEF76BFED7F800C06346B9F1000F85
:104C200010D1A2050ED5D7E9120150EA010209D030
:104C3000B8F1400F7A691AD1E96B013243F8041CCC
:104C40007A61043BB46879698C421EDDA2000E32A1
:104C500022F00702ADEB020D04AD01910094304645
:104C6000796C2A46FFF75BFC7C612B460DE0C4F3B0
:104C7000803402345BF82410023243F8041CE96BE0
:104C80007A6143F8081C083BDCE70022B2607A69CD
:104C90005046009207F1080206CAFFF759F950463C
:104CA0001C37BD46BDE8F08F30B5054687B004AC73
:104CB00084E80C000A9B00930B9B0193DDE90C2315
:104CC000CDE9022394E80C00FFF75BFF284607B00C
:104CD00030BD2DE9F04F8FB004AF3E6D824606F136
:104CE0006C04204607F1080989E80C007960FFF799
:104CF000FBF8736807F11801002BA8BF9B4697F8D3
:104D0000582080463046B8BF4FF0060B0BF037F9FD
:104D1000F26853074CBF0BF59C720BF11E020E326A
:104D200022F00702ADEB020D0BF0A4F9D7E918232E
:104D300007F1280104AD41F8140D0846CDE902231E
:104D40002946002207F11803CDF800B0FEF7DEF97E
:104D500038612046FEF722FC3A69294693000E335B
:104D600023F00703ADEB030D04AC2A442346FEF702
:104D70005AFE3B6928461A462E213B600EF068FC1D
:104D80003B6830B1D8F82410421B04EB820044F891
:104D9000221098F81020002A39D050B9022B08DDD3
:104DA0006978392933D82F29AA7830D9303A092A95
:104DB0002DD8DA000832ADEB020D2A780DF1100C77
:104DC0002D2A01D02B2A06D12268013BCCF80020E5
:104DD0003B61012500E00025AB000CEB03021C4405
:104DE00007F110030090029401920393D8F8283041
:104DF0007868D8F80810D8F80C20C7F800C0FEF77B
:104E000051FDD7F800C03B6964461D443D61B5685B
:104E10003A69954211DDAB000E3323F00703ADEB89
:104E2000030D0DF1100823464446019200953046CB
:104E3000796D4246FFF773FB3D610023B3603B6928
:104E4000504699E8060000932346FFF781F8504644
:104E50002C37BD46BDE8F08F30B5054689B006ACAD
:104E600084E80C000C9B00930D9B0193002302939C
:104E7000DDE90E23CDE9042394E80C00FFF729FFB8
:104E8000284609B030BD2DE9F04F8FB004AF3E6D1C
:104E9000824606F16C04204607F1080989E80C00F7
:104EA0007960FFF721F8736807F11801002BA8BF9C
:104EB0009B4697F8582080463046B8BF4FF0060B07
:104EC0000BF05DF8F26853074CBF0BF59C720BF1C9
:104ED0001E020E3222F00702ADEB020D0BF0CAF8F3
:104EE000D7E9182307F1280104AD41F8140D08464D
:104EF000CDE902232946002207F11803CDF800B0BE
:104F0000FEF704F938612046FEF748FB3A69294666
:104F100093000E3323F00703ADEB030D04AC2A44DA
:104F20002346FEF780FD3B6928461A462E213B604A
:104F30000EF08EFB3B6830B1D8F82410421B04EB16
:104F4000820044F8221098F81020002A39D050B975
:104F5000022B08DD6978392933D82F29AA7830D96E
:104F6000303A092A2DD8DA000832ADEB020D2A7842
:104F70000DF1100C2D2A01D02B2A06D12268013BFD
:104F8000CCF800203B61012500E00025AB000CEBD4
:104F900003021C4407F11003009002940192039352
:104FA000D8F828307868D8F80810D8F80C20C7F856
:104FB00000C0FEF777FCD7F800C03B6964461D448B
:104FC0003D61B5683A69954211DDAB000E3323F0BF
:104FD0000703ADEB030D0DF1100823464446019283
:104FE00000953046796D4246FFF799FA3D610023FE
:104FF000B3603B69504699E8060000932346FEF7EC
:10500000A7FF50462C37BD46BDE8F08F30B50546AA
:1050100089B006AC84E80C000C9B00930D9B0193B7
:105020004C230293DDE90E23CDE9042394E80C0020
:10503000FFF729FF284609B030BD2DE9F043ADF553
:10504000097D909D07466C35284602AC84E80C002B
:105050009DF84C829DF85062FEF7A0FA81462846E2
:10506000FEF750FB252105464846FFF755FA049008
:105070001EB9CDF81480069604E000230596CDF8FD
:1050800018800793929B08A90093284604AB8022BE
:1050900003F0A6F908A811F0E5FE009094E80600D8
:1050A000384608ABFEF754FF38460DF5097DBDE8DC
:1050B000F083036810B504465BB14068421C0AD116
:1050C000184609F0F0F9431C0ABF00236060236012
:1050D00010BD4FF0FF3010BD38B50D46FFF7E9FFAA
:1050E00004462846FFF7E5FF631C5C4200F101021D
:1050F0005C4150425041211A4842484138BD08B5F0
:10510000FFF7EAFF80F00100C0B208BD2DE9F74FBC
:105110008046129802A96C30119D01E90C000E9F87
:10512000DDF84CA0FEF73AFA022D834606D0042D96
:105130000CBF4FF47A794FF0010901E04FF00A09F2
:105140000024264668460CA9FFF7D9FF10B1AE42ED
:1051500003D11BE0AE4214D118E06846FFF7A9FF67
:105160002A2201465846FFF7D4F93038C2B2092A3C
:1051700007D80A2101FB040409FB04F2109B9A42A0
:105180000DDD042D04D1022E02D1643C3C6011E0FF
:10519000DAF8003043F00403CAF800300AE00F9B4D
:1051A0004A449342EDDA684699FBF1F90136FEF77D
:1051B000C1FEC7E702AB13E9030088E803004046DD
:1051C00003B0BDE8F08F2DE9F04F85B000AF814608
:1051D000F86C07F108046C3084E80C00D7F84480C0
:1051E000FEF7DCF9BB6C83469B000E3323F007030C
:1051F000ADEB030D204607F138016E46FFF77FFF48
:1052000018B905464FF0000B51E02046FFF751FF5B
:10521000002382461D46BA6C9342F3D058F82310FF
:1052200009688A456ED0DBF800007B6082695846C9
:10523000904782457B6865D00133ECE756F8231030
:105240007B6058F8210011F00DFE7B68824503F168
:10525000010328BF8246AB42F0D120460BF1010B7F
:10526000FEF768FED34551D2204607F13801FFF71B
:1052700046FF00284AD04FEA8B024FF0000A56F84A
:105280002A10204658F821103A6089587960FFF7B3
:1052900010FF79683A6881421BBF05F1FF3556F867
:1052A00025100AF1010A46F82A10AA45E7D3012D74
:1052B00007D9336858F8230011F0D4FD0123824642
:1052C000BCE723D12046FEF735FE36680BF1010519
:1052D00058F826B0584611F0C5FD804645451CD209
:1052E000204607F13801FFF70AFFB0B120465BF80E
:1052F00025A0FFF7DEFE82450FD12046FEF71AFEFD
:105300000135EBE746F82530013595E73B6D3A6D01
:105310001B6843F00403136003E0A845F6D13B6C1F
:105320001E6094E8030089E8030048461437BD4630
:10533000BDE8F08F2DE9F04F85B000AF8146F86CE5
:1053400007F108056C3085E80C00FEF727F9BB6C07
:105350008346DB000833ADEB030D284607F1380127
:105360006E46FFF7CCFE18B90024A346A0463CE0E9
:105370002846FFF79EFE4FF0000A03465446BA6CDB
:105380004FEA4208C24513D07A6C52F82A100968D5
:105390008B4200F08C80DBF800007B60826958460D
:1053A00090477B68834200F082800AF1010AE9E7B6
:1053B000002CD9D02846FEF7BDFDA3000E3323F004
:1053C0000703ADEB030DE8464FF0000A56F82A300C
:1053D0007A6C52F8230011F045FD48F82A000AF1D2
:1053E000010AA245F2D14FF0010B4FEA8B0A284681
:1053F00007F13801FFF783FE90B32846FFF759FE07
:10540000002378601846A3421FD27A6C56F8231006
:105410004FEA830E52F8211058F8232008EB0E0CA7
:10542000934501D301300EE051F80A107A68914299
:1054300009D0013C56F8241046F80E1058F82410F4
:10544000CCF80010DFE70133DDE7A0420AF1040ADF
:1054500006D007F10800FEF76DFD0BF1010BC6E762
:10546000012C02D1D8F8003007E0022C0ED1D8F878
:1054700000305B4503D0D8F804305B4506D1BA6CE8
:105480003368934228BF9B1A3A6C04E03B6D3A6D37
:105490001B6843F00403136007F1100313E90300D2
:1054A00089E8030048461437BD46BDE8F08F46F84A
:1054B00024A0013479E700002DE9F04FA1B02C9C25
:1054C0000C9004F16C060D46304610A981E80C00E2
:1054D000DDF8B880FEF716F909903046FEF75EF861
:1054E00081462F9811F0BEFC00239A460B90129330
:1054F00010AE30462AA9FFF702FEDDF848B00028BA
:1055000000F073820B9B9A4580F06F82BBF1000F15
:1055100040F06B822F9B484653F82A105A4603EB03
:105520008A07FEF7F6FF252840F006820AF10103FC
:10553000484679685A460A93FEF7EBFF4528CDF8AE
:105540004CB001D04F2807D10AF102034846B96890
:1055500000220A93FEF7DDFF413810AE382800F232
:10556000E481DFE810F03F0065007801BE00E20151
:10557000E201E201C200CF00E201E201E201010129
:10558000E201E201E201E2011D0131015401E20107
:10559000E201E2015F017801A101E201E201E20121
:1055A000E201E201E20139005F0076007B00880041
:1055B000E201E2015F00E201E201E201E201DC005E
:1055C0000E01E201E201E201E201E2014A01E2012F
:1055D000E201E2015A01780114AE09983146FDF763
:1055E0004CFF04E014AE09983146FDF730FF2AABBA
:1055F00093E803008DE8030008F1180302930EAF4F
:1056000003960723049312AB0594069310AE384615
:1056100096E80C002946FFF7D6FD97E8030086E8D8
:10562000030086E114AE09983146FDF766FF04E0F9
:1056300014AE09983146FDF736FF2AAB93E8030014
:1056400008F1100302930EAF8DE8030003960C23BC
:10565000D8E7099814A9FDF7F3FEE7E02AAB93E831
:10566000030008F10C030293012303930EAF8DE8AE
:1056700003001F23B3E03046FFF71BFD082102465D
:105680004846FEF762FC0EAFB8B13046FEF752FC5A
:1056900003462AAA92E8030008F10C028DE80300F1
:1056A0000292012203920921059212AA0491069402
:1056B000079238460CCB29469CE02AAB93E80300BE
:1056C00008F10C0302930A2303931F23049302237C
:1056D000059312AB8DE803000694079338462946DC
:1056E00086E014AE48469E4994E02AAB93E8030056
:1056F00008F108030293002303930EAF8DE8030023
:1057000017236CE02AAB93E8030008F10803029327
:10571000012303930EAF8DE803000C235FE02AAB57
:1057200093E8030013AB0293012303930C238DE84A
:10573000030004930223059312AB0EAF0694079364
:1057400010AE384696E80C002946FFF7DFFC97E8D4
:105750000300129B86E80300002B40F0EA80139BB5
:10576000013BC8F81030E4E02AAB93E8030008F1ED
:1057700004030293002303930EAF8DE803003B2341
:105780002DE03046FFF795FC002201464846FEF723
:10579000C0FE0A2840F0C9803046FEF7CBFBC8E0C7
:1057A0004846704914AE8A1D3346FEF73CF92AABD1
:1057B00093E8030012AB0EAF8DE80300029403934D
:1057C000CDF8108005963EE02AAB93E803008DE803
:1057D0000300002303930EAFCDF808803D23384625
:1057E000294604930223059312AB0694079310AE47
:1057F00096E80C00FFF78AFC0FE73046FFF759FCEC
:10580000002201464846FEF784FE0928C2E74846C2
:10581000554914AE01F10902C6E7099814A9FDF72C
:1058200001FE03E0099814A9FDF703FE2AAB93E8F3
:10583000030012AB03938DE80300149B0EAF029498
:10584000CDF81080059310AE384696E80C00294636
:10585000FFF732FEE1E62AAB93E8030013AB0293B5
:105860000023039342F20F738DE803000493042393
:10587000059312AB0EAF0694079310AE384696E828
:105880000C002946FFF742FC97E80300129B86E8CC
:105890000300002B4DD1139B002BB4BF6433A3F244
:1058A0006C73C8F8143044E03046FFF702FC012165
:1058B00002464846FEF749FB002836D02AAB93E85B
:1058C000030014AB0293294B8DE8030003930E23CE
:1058D000049312AB0EAF05940693384696E80C007D
:1058E0002946FFF770FC97E8030086E8030030467E
:1058F0002AA9FFF704FCE0B1129BD3B9149BC3B9EA
:105900003046FFF7D6FB2D2107464846FEF704FE3A
:1059100087422DD03046FFF7CCFB2B210646484668
:10592000FEF7FAFD864204D122E0129B43F0040305
:105930001293DDF828A00FE02F9B304653F82A7011
:10594000FFF7B7FB874203D13046FEF7F3FA03E0D7
:10595000129B43F0040312930AF1010AC8E500BF49
:1059600054B101005DB1010063B101002C010010D0
:105970002AAB93E8030017238DE803004FF0000CD7
:10598000049314AF022312AE0DF1380B0DF1400A4F
:10599000CDF80CC002970593069407969AE80C0080
:1059A000CDF834C058462946FFF7B0FB9BE803000A
:1059B0002AAB8AE8030093E80300DDF834C08DE8E1
:1059C00003003B23049302230297CDF80CC00593F8
:1059D0000694079658469AE80C002946FFF796FB6E
:1059E0009BE803008AE80300A3E7BBF1000F02D1A4
:1059F0000B9B9A4505D02D9B2D9A1B6843F0040301
:105A000013600C9B96E8030083E80300184621B05E
:105A1000BDE8F08F2DE9F04389468DB0DDF8588060
:105A200008AC054608F16C0084E80C00179EFDF7F1
:105A300069FE0AA9FDF7FDFC14AB93E80300189B6F
:105A40008DE8030004930A9B06AFCDF80880039607
:105A50000593384694E80C004946FFF72DFD97E87A
:105A6000030084E80300204614A9FFF735FB18B1B2
:105A7000336843F00203336094E8030085E80300D1
:105A800028460DB0BDE8F0832DE9F04389468DB07E
:105A9000DDF8588008AC054608F16C0084E80C007D
:105AA000179EFDF72FFE0AA9FDF7BCFC14AB93E887
:105AB0000300189B8DE8030004930A9B06AFCDF802
:105AC000088003960593384694E80C004946FFF792
:105AD000F3FC97E8030084E80300204614A9FFF7CD
